{
  "contractName": "ResearchPapers",
  "abi": [
    {
      "inputs": [],
      "stateMutability": "nonpayable",
      "type": "constructor"
    },
    {
      "anonymous": false,
      "inputs": [
        {
          "indexed": true,
          "internalType": "address",
          "name": "owner",
          "type": "address"
        },
        {
          "indexed": true,
          "internalType": "address",
          "name": "approved",
          "type": "address"
        },
        {
          "indexed": true,
          "internalType": "uint256",
          "name": "tokenId",
          "type": "uint256"
        }
      ],
      "name": "Approval",
      "type": "event"
    },
    {
      "anonymous": false,
      "inputs": [
        {
          "indexed": true,
          "internalType": "address",
          "name": "owner",
          "type": "address"
        },
        {
          "indexed": true,
          "internalType": "address",
          "name": "operator",
          "type": "address"
        },
        {
          "indexed": false,
          "internalType": "bool",
          "name": "approved",
          "type": "bool"
        }
      ],
      "name": "ApprovalForAll",
      "type": "event"
    },
    {
      "anonymous": false,
      "inputs": [
        {
          "indexed": true,
          "internalType": "address",
          "name": "previousOwner",
          "type": "address"
        },
        {
          "indexed": true,
          "internalType": "address",
          "name": "newOwner",
          "type": "address"
        }
      ],
      "name": "OwnershipTransferred",
      "type": "event"
    },
    {
      "anonymous": false,
      "inputs": [
        {
          "indexed": true,
          "internalType": "address",
          "name": "from",
          "type": "address"
        },
        {
          "indexed": true,
          "internalType": "address",
          "name": "to",
          "type": "address"
        },
        {
          "indexed": true,
          "internalType": "uint256",
          "name": "tokenId",
          "type": "uint256"
        }
      ],
      "name": "Transfer",
      "type": "event"
    },
    {
      "inputs": [
        {
          "internalType": "address",
          "name": "to",
          "type": "address"
        },
        {
          "internalType": "uint256",
          "name": "tokenId",
          "type": "uint256"
        }
      ],
      "name": "approve",
      "outputs": [],
      "stateMutability": "nonpayable",
      "type": "function"
    },
    {
      "inputs": [
        {
          "internalType": "address",
          "name": "owner",
          "type": "address"
        }
      ],
      "name": "balanceOf",
      "outputs": [
        {
          "internalType": "uint256",
          "name": "",
          "type": "uint256"
        }
      ],
      "stateMutability": "view",
      "type": "function",
      "constant": true
    },
    {
      "inputs": [
        {
          "internalType": "uint256",
          "name": "tokenId",
          "type": "uint256"
        }
      ],
      "name": "getApproved",
      "outputs": [
        {
          "internalType": "address",
          "name": "",
          "type": "address"
        }
      ],
      "stateMutability": "view",
      "type": "function",
      "constant": true
    },
    {
      "inputs": [
        {
          "internalType": "address",
          "name": "owner",
          "type": "address"
        },
        {
          "internalType": "address",
          "name": "operator",
          "type": "address"
        }
      ],
      "name": "isApprovedForAll",
      "outputs": [
        {
          "internalType": "bool",
          "name": "",
          "type": "bool"
        }
      ],
      "stateMutability": "view",
      "type": "function",
      "constant": true
    },
    {
      "inputs": [],
      "name": "max_price",
      "outputs": [
        {
          "internalType": "uint256",
          "name": "",
          "type": "uint256"
        }
      ],
      "stateMutability": "view",
      "type": "function",
      "constant": true
    },
    {
      "inputs": [],
      "name": "name",
      "outputs": [
        {
          "internalType": "string",
          "name": "",
          "type": "string"
        }
      ],
      "stateMutability": "view",
      "type": "function",
      "constant": true
    },
    {
      "inputs": [],
      "name": "owner",
      "outputs": [
        {
          "internalType": "address",
          "name": "",
          "type": "address"
        }
      ],
      "stateMutability": "view",
      "type": "function",
      "constant": true
    },
    {
      "inputs": [
        {
          "internalType": "uint256",
          "name": "tokenId",
          "type": "uint256"
        }
      ],
      "name": "ownerOf",
      "outputs": [
        {
          "internalType": "address",
          "name": "",
          "type": "address"
        }
      ],
      "stateMutability": "view",
      "type": "function",
      "constant": true
    },
    {
      "inputs": [],
      "name": "renounceOwnership",
      "outputs": [],
      "stateMutability": "nonpayable",
      "type": "function"
    },
    {
      "inputs": [
        {
          "internalType": "address",
          "name": "from",
          "type": "address"
        },
        {
          "internalType": "address",
          "name": "to",
          "type": "address"
        },
        {
          "internalType": "uint256",
          "name": "tokenId",
          "type": "uint256"
        }
      ],
      "name": "safeTransferFrom",
      "outputs": [],
      "stateMutability": "nonpayable",
      "type": "function"
    },
    {
      "inputs": [
        {
          "internalType": "address",
          "name": "from",
          "type": "address"
        },
        {
          "internalType": "address",
          "name": "to",
          "type": "address"
        },
        {
          "internalType": "uint256",
          "name": "tokenId",
          "type": "uint256"
        },
        {
          "internalType": "bytes",
          "name": "data",
          "type": "bytes"
        }
      ],
      "name": "safeTransferFrom",
      "outputs": [],
      "stateMutability": "nonpayable",
      "type": "function"
    },
    {
      "inputs": [
        {
          "internalType": "address",
          "name": "operator",
          "type": "address"
        },
        {
          "internalType": "bool",
          "name": "approved",
          "type": "bool"
        }
      ],
      "name": "setApprovalForAll",
      "outputs": [],
      "stateMutability": "nonpayable",
      "type": "function"
    },
    {
      "inputs": [
        {
          "internalType": "bytes4",
          "name": "interfaceId",
          "type": "bytes4"
        }
      ],
      "name": "supportsInterface",
      "outputs": [
        {
          "internalType": "bool",
          "name": "",
          "type": "bool"
        }
      ],
      "stateMutability": "view",
      "type": "function",
      "constant": true
    },
    {
      "inputs": [],
      "name": "symbol",
      "outputs": [
        {
          "internalType": "string",
          "name": "",
          "type": "string"
        }
      ],
      "stateMutability": "view",
      "type": "function",
      "constant": true
    },
    {
      "inputs": [
        {
          "internalType": "uint256",
          "name": "tokenId",
          "type": "uint256"
        }
      ],
      "name": "tokenURI",
      "outputs": [
        {
          "internalType": "string",
          "name": "",
          "type": "string"
        }
      ],
      "stateMutability": "view",
      "type": "function",
      "constant": true
    },
    {
      "inputs": [
        {
          "internalType": "address",
          "name": "from",
          "type": "address"
        },
        {
          "internalType": "address",
          "name": "to",
          "type": "address"
        },
        {
          "internalType": "uint256",
          "name": "tokenId",
          "type": "uint256"
        }
      ],
      "name": "transferFrom",
      "outputs": [],
      "stateMutability": "nonpayable",
      "type": "function"
    },
    {
      "inputs": [
        {
          "internalType": "address",
          "name": "newOwner",
          "type": "address"
        }
      ],
      "name": "transferOwnership",
      "outputs": [],
      "stateMutability": "nonpayable",
      "type": "function"
    },
    {
      "inputs": [
        {
          "internalType": "address payable",
          "name": "author",
          "type": "address"
        },
        {
          "internalType": "string",
          "name": "paper_name",
          "type": "string"
        },
        {
          "internalType": "string",
          "name": "paper_url",
          "type": "string"
        },
        {
          "internalType": "uint256",
          "name": "id",
          "type": "uint256"
        }
      ],
      "name": "approveAndcreateNFT",
      "outputs": [],
      "stateMutability": "nonpayable",
      "type": "function"
    },
    {
      "inputs": [
        {
          "internalType": "uint256",
          "name": "id",
          "type": "uint256"
        }
      ],
      "name": "start_bidding",
      "outputs": [],
      "stateMutability": "nonpayable",
      "type": "function"
    },
    {
      "inputs": [],
      "name": "bid",
      "outputs": [],
      "stateMutability": "payable",
      "type": "function",
      "payable": true
    },
    {
      "inputs": [],
      "name": "close_bidding",
      "outputs": [],
      "stateMutability": "payable",
      "type": "function",
      "payable": true
    },
    {
      "inputs": [
        {
          "internalType": "uint256",
          "name": "id",
          "type": "uint256"
        }
      ],
      "name": "display_PaperDetails",
      "outputs": [
        {
          "components": [
            {
              "internalType": "string",
              "name": "name",
              "type": "string"
            },
            {
              "internalType": "bool",
              "name": "verified",
              "type": "bool"
            },
            {
              "internalType": "address payable",
              "name": "previous_owner",
              "type": "address"
            },
            {
              "internalType": "address payable",
              "name": "present_owner",
              "type": "address"
            },
            {
              "internalType": "uint256",
              "name": "id",
              "type": "uint256"
            },
            {
              "internalType": "string",
              "name": "paper_url",
              "type": "string"
            }
          ],
          "internalType": "struct ResearchPapers.PaperDetails",
          "name": "",
          "type": "tuple"
        }
      ],
      "stateMutability": "view",
      "type": "function",
      "constant": true
    },
    {
      "inputs": [],
      "name": "display_maxBidPrice",
      "outputs": [
        {
          "internalType": "uint256",
          "name": "",
          "type": "uint256"
        }
      ],
      "stateMutability": "view",
      "type": "function",
      "constant": true
    },
    {
      "inputs": [
        {
          "internalType": "uint256",
          "name": "id",
          "type": "uint256"
        }
      ],
      "name": "display_PersonDetails",
      "outputs": [
        {
          "internalType": "address",
          "name": "",
          "type": "address"
        }
      ],
      "stateMutability": "view",
      "type": "function",
      "constant": true
    }
  ],
  "bytecode": "0x60806040526000600c60006101000a81548160ff0219169083151502179055506000600f553480156200003157600080fd5b506040518060400160405280601481526020017f5265736561726368506170657242696464696e670000000000000000000000008152506040518060400160405280600381526020017f52504200000000000000000000000000000000000000000000000000000000008152508160009081620000af919062000473565b508060019081620000c1919062000473565b505050620000e4620000d86200012b60201b60201c565b6200013360201b60201c565b33600960006101000a81548173ffffffffffffffffffffffffffffffffffffffff021916908373ffffffffffffffffffffffffffffffffffffffff1602179055506200055a565b600033905090565b6000600660009054906101000a900473ffffffffffffffffffffffffffffffffffffffff16905081600660006101000a81548173ffffffffffffffffffffffffffffffffffffffff021916908373ffffffffffffffffffffffffffffffffffffffff1602179055508173ffffffffffffffffffffffffffffffffffffffff168173ffffffffffffffffffffffffffffffffffffffff167f8be0079c531659141344cd1fd0a4f28419497f9722a3daafe3b4186f6b6457e060405160405180910390a35050565b600081519050919050565b7f4e487b7100000000000000000000000000000000000000000000000000000000600052604160045260246000fd5b7f4e487b7100000000000000000000000000000000000000000000000000000000600052602260045260246000fd5b600060028204905060018216806200027b57607f821691505b60208210810362000291576200029062000233565b5b50919050565b60008190508160005260206000209050919050565b60006020601f8301049050919050565b600082821b905092915050565b600060088302620002fb7fffffffffffffffffffffffffffffffffffffffffffffffffffffffffffffffff82620002bc565b620003078683620002bc565b95508019841693508086168417925050509392505050565b6000819050919050565b6000819050919050565b6000620003546200034e62000348846200031f565b62000329565b6200031f565b9050919050565b6000819050919050565b620003708362000333565b620003886200037f826200035b565b848454620002c9565b825550505050565b600090565b6200039f62000390565b620003ac81848462000365565b505050565b5b81811015620003d457620003c860008262000395565b600181019050620003b2565b5050565b601f8211156200042357620003ed8162000297565b620003f884620002ac565b8101602085101562000408578190505b620004206200041785620002ac565b830182620003b1565b50505b505050565b600082821c905092915050565b6000620004486000198460080262000428565b1980831691505092915050565b600062000463838362000435565b9150826002028217905092915050565b6200047e82620001f9565b67ffffffffffffffff8111156200049a576200049962000204565b5b620004a6825462000262565b620004b3828285620003d8565b600060209050601f831160018114620004eb5760008415620004d6578287015190505b620004e2858262000455565b86555062000552565b601f198416620004fb8662000297565b60005b828110156200052557848901518255600182019150602085019450602081019050620004fe565b8683101562000545578489015162000541601f89168262000435565b8355505b6001600288020188555050505b505050505050565b6139d4806200056a6000396000f3fe60806040526004361061014b5760003560e01c80636352211e116100b6578063b88d4fde1161006f578063b88d4fde14610450578063c87b56dd14610479578063e3835ed3146104b6578063e985e9c5146104f3578063f1e36ca114610530578063f2fde38b146105595761014b565b80636352211e1461034057806370a082311461037d578063715018a6146103ba5780638da5cb5b146103d157806395d89b41146103fc578063a22cb465146104275761014b565b8063269471b311610108578063269471b3146102515780633710a34c1461027c578063385fab00146102a557806342842e0e146102d05780635d628b73146102f957806360033865146103035761014b565b806301ffc9a71461015057806306fdde031461018d578063081812fc146101b8578063095ea7b3146101f55780631998aeef1461021e57806323b872dd14610228575b600080fd5b34801561015c57600080fd5b50610177600480360381019061017291906126ad565b610582565b60405161018491906126f5565b60405180910390f35b34801561019957600080fd5b506101a2610664565b6040516101af91906127a0565b60405180910390f35b3480156101c457600080fd5b506101df60048036038101906101da91906127f8565b6106f6565b6040516101ec9190612866565b60405180910390f35b34801561020157600080fd5b5061021c600480360381019061021791906128ad565b61073c565b005b610226610853565b005b34801561023457600080fd5b5061024f600480360381019061024a91906128ed565b610931565b005b34801561025d57600080fd5b50610266610991565b604051610273919061294f565b60405180910390f35b34801561028857600080fd5b506102a3600480360381019061029e91906127f8565b610997565b005b3480156102b157600080fd5b506102ba6109cc565b6040516102c7919061294f565b60405180910390f35b3480156102dc57600080fd5b506102f760048036038101906102f291906128ed565b6109d6565b005b6103016109f6565b005b34801561030f57600080fd5b5061032a600480360381019061032591906127f8565b610e29565b6040516103379190612866565b60405180910390f35b34801561034c57600080fd5b50610367600480360381019061036291906127f8565b610e66565b6040516103749190612866565b60405180910390f35b34801561038957600080fd5b506103a4600480360381019061039f919061296a565b610eec565b6040516103b1919061294f565b60405180910390f35b3480156103c657600080fd5b506103cf610fa3565b005b3480156103dd57600080fd5b506103e6610fb7565b6040516103f39190612866565b60405180910390f35b34801561040857600080fd5b50610411610fe1565b60405161041e91906127a0565b60405180910390f35b34801561043357600080fd5b5061044e600480360381019061044991906129c3565b611073565b005b34801561045c57600080fd5b5061047760048036038101906104729190612b38565b611089565b005b34801561048557600080fd5b506104a0600480360381019061049b91906127f8565b6110eb565b6040516104ad91906127a0565b60405180910390f35b3480156104c257600080fd5b506104dd60048036038101906104d891906127f8565b611153565b6040516104ea9190612cd4565b60405180910390f35b3480156104ff57600080fd5b5061051a60048036038101906105159190612cf6565b611375565b60405161052791906126f5565b60405180910390f35b34801561053c57600080fd5b5061055760048036038101906105529190612e03565b611409565b005b34801561056557600080fd5b50610580600480360381019061057b919061296a565b611425565b005b60007f80ac58cd000000000000000000000000000000000000000000000000000000007bffffffffffffffffffffffffffffffffffffffffffffffffffffffff1916827bffffffffffffffffffffffffffffffffffffffffffffffffffffffff1916148061064d57507f5b5e139f000000000000000000000000000000000000000000000000000000007bffffffffffffffffffffffffffffffffffffffffffffffffffffffff1916827bffffffffffffffffffffffffffffffffffffffffffffffffffffffff1916145b8061065d575061065c826114a8565b5b9050919050565b60606000805461067390612ed1565b80601f016020809104026020016040519081016040528092919081815260200182805461069f90612ed1565b80156106ec5780601f106106c1576101008083540402835291602001916106ec565b820191906000526020600020905b8154815290600101906020018083116106cf57829003601f168201915b5050505050905090565b600061070182611512565b6004600083815260200190815260200160002060009054906101000a900473ffffffffffffffffffffffffffffffffffffffff169050919050565b600061074782610e66565b90508073ffffffffffffffffffffffffffffffffffffffff168373ffffffffffffffffffffffffffffffffffffffff16036107b7576040517f08c379a00000000000000000000000000000000000000000000000000000000081526004016107ae90612f74565b60405180910390fd5b8073ffffffffffffffffffffffffffffffffffffffff166107d661155d565b73ffffffffffffffffffffffffffffffffffffffff1614806108055750610804816107ff61155d565b611375565b5b610844576040517f08c379a000000000000000000000000000000000000000000000000000000000815260040161083b90613006565b60405180910390fd5b61084e8383611565565b505050565b600c60009054906101000a900460ff1661086c57600080fd5b600b6000600e54815260200190815260200160002060020160009054906101000a900473ffffffffffffffffffffffffffffffffffffffff1673ffffffffffffffffffffffffffffffffffffffff163373ffffffffffffffffffffffffffffffffffffffff16036108dc57600080fd5b600f5434111561092f5734600f8190555033601060006101000a81548173ffffffffffffffffffffffffffffffffffffffff021916908373ffffffffffffffffffffffffffffffffffffffff1602179055505b565b61094261093c61155d565b8261161e565b610981576040517f08c379a000000000000000000000000000000000000000000000000000000000815260040161097890613098565b60405180910390fd5b61098c8383836116b3565b505050565b600f5481565b61099f6119ac565b6000600f819055506001600c60006101000a81548160ff02191690831515021790555080600e8190555050565b6000600f54905090565b6109f183838360405180602001604052806000815250611089565b505050565b6109fe6119ac565b6000600c60006101000a81548160ff0219169083151502179055506000600b6000600e54815260200190815260200160002060020160009054906101000a900473ffffffffffffffffffffffffffffffffffffffff1690506000600b6000600e548152602001908152602001600020600301549050601060009054906101000a900473ffffffffffffffffffffffffffffffffffffffff16600a6000600e54815260200190815260200160002060006101000a81548173ffffffffffffffffffffffffffffffffffffffff021916908373ffffffffffffffffffffffffffffffffffffffff1602179055506040518060c00160405280600b6000600e5481526020019081526020016000206000018054610b1790612ed1565b80601f0160208091040260200160405190810160405280929190818152602001828054610b4390612ed1565b8015610b905780601f10610b6557610100808354040283529160200191610b90565b820191906000526020600020905b815481529060010190602001808311610b7357829003601f168201915b505050505081526020016001151581526020018373ffffffffffffffffffffffffffffffffffffffff168152602001601060009054906101000a900473ffffffffffffffffffffffffffffffffffffffff1673ffffffffffffffffffffffffffffffffffffffff168152602001828152602001600b6000600e5481526020019081526020016000206004018054610c2690612ed1565b80601f0160208091040260200160405190810160405280929190818152602001828054610c5290612ed1565b8015610c9f5780601f10610c7457610100808354040283529160200191610c9f565b820191906000526020600020905b815481529060010190602001808311610c8257829003601f168201915b5050505050815250600b6000600e5481526020019081526020016000206000820151816000019081610cd19190613264565b5060208201518160010160006101000a81548160ff02191690831515021790555060408201518160010160016101000a81548173ffffffffffffffffffffffffffffffffffffffff021916908373ffffffffffffffffffffffffffffffffffffffff16021790555060608201518160020160006101000a81548173ffffffffffffffffffffffffffffffffffffffff021916908373ffffffffffffffffffffffffffffffffffffffff1602179055506080820151816003015560a0820151816004019081610d9f9190613264565b509050508173ffffffffffffffffffffffffffffffffffffffff166108fc600f549081150290604051600060405180830381858888f19350505050158015610deb573d6000803e3d6000fd5b50610e25610dfa600e54610e66565b601060009054906101000a900473ffffffffffffffffffffffffffffffffffffffff16600e546116b3565b5050565b6000600a600083815260200190815260200160002060009054906101000a900473ffffffffffffffffffffffffffffffffffffffff169050919050565b600080610e7283611a2a565b9050600073ffffffffffffffffffffffffffffffffffffffff168173ffffffffffffffffffffffffffffffffffffffff1603610ee3576040517f08c379a0000000000000000000000000000000000000000000000000000000008152600401610eda90613382565b60405180910390fd5b80915050919050565b60008073ffffffffffffffffffffffffffffffffffffffff168273ffffffffffffffffffffffffffffffffffffffff1603610f5c576040517f08c379a0000000000000000000000000000000000000000000000000000000008152600401610f5390613414565b60405180910390fd5b600360008373ffffffffffffffffffffffffffffffffffffffff1673ffffffffffffffffffffffffffffffffffffffff168152602001908152602001600020549050919050565b610fab6119ac565b610fb56000611a67565b565b6000600660009054906101000a900473ffffffffffffffffffffffffffffffffffffffff16905090565b606060018054610ff090612ed1565b80601f016020809104026020016040519081016040528092919081815260200182805461101c90612ed1565b80156110695780601f1061103e57610100808354040283529160200191611069565b820191906000526020600020905b81548152906001019060200180831161104c57829003601f168201915b5050505050905090565b61108561107e61155d565b8383611b2d565b5050565b61109a61109461155d565b8361161e565b6110d9576040517f08c379a00000000000000000000000000000000000000000000000000000000081526004016110d090613098565b60405180910390fd5b6110e584848484611c99565b50505050565b60606110f682611512565b6000611100611cf5565b90506000815111611120576040518060200160405280600081525061114b565b8061112a84611d32565b60405160200161113b929190613470565b6040516020818303038152906040525b915050919050565b61115b6125dd565b600b60008381526020019081526020016000206040518060c001604052908160008201805461118990612ed1565b80601f01602080910402602001604051908101604052809291908181526020018280546111b590612ed1565b80156112025780601f106111d757610100808354040283529160200191611202565b820191906000526020600020905b8154815290600101906020018083116111e557829003601f168201915b505050505081526020016001820160009054906101000a900460ff161515151581526020016001820160019054906101000a900473ffffffffffffffffffffffffffffffffffffffff1673ffffffffffffffffffffffffffffffffffffffff1673ffffffffffffffffffffffffffffffffffffffff1681526020016002820160009054906101000a900473ffffffffffffffffffffffffffffffffffffffff1673ffffffffffffffffffffffffffffffffffffffff1673ffffffffffffffffffffffffffffffffffffffff168152602001600382015481526020016004820180546112ec90612ed1565b80601f016020809104026020016040519081016040528092919081815260200182805461131890612ed1565b80156113655780601f1061133a57610100808354040283529160200191611365565b820191906000526020600020905b81548152906001019060200180831161134857829003601f168201915b5050505050815250509050919050565b6000600560008473ffffffffffffffffffffffffffffffffffffffff1673ffffffffffffffffffffffffffffffffffffffff16815260200190815260200160002060008373ffffffffffffffffffffffffffffffffffffffff1673ffffffffffffffffffffffffffffffffffffffff16815260200190815260200160002060009054906101000a900460ff16905092915050565b6114116119ac565b61141f848484846001611e00565b50505050565b61142d6119ac565b600073ffffffffffffffffffffffffffffffffffffffff168173ffffffffffffffffffffffffffffffffffffffff160361149c576040517f08c379a000000000000000000000000000000000000000000000000000000000815260040161149390613506565b60405180910390fd5b6114a581611a67565b50565b60007f01ffc9a7000000000000000000000000000000000000000000000000000000007bffffffffffffffffffffffffffffffffffffffffffffffffffffffff1916827bffffffffffffffffffffffffffffffffffffffffffffffffffffffff1916149050919050565b61151b81611fd9565b61155a576040517f08c379a000000000000000000000000000000000000000000000000000000000815260040161155190613382565b60405180910390fd5b50565b600033905090565b816004600083815260200190815260200160002060006101000a81548173ffffffffffffffffffffffffffffffffffffffff021916908373ffffffffffffffffffffffffffffffffffffffff160217905550808273ffffffffffffffffffffffffffffffffffffffff166115d883610e66565b73ffffffffffffffffffffffffffffffffffffffff167f8c5be1e5ebec7d5bd14f71427d1e84f3dd0314c0f7b2291e5b200ac8c7c3b92560405160405180910390a45050565b60008061162a83610e66565b90508073ffffffffffffffffffffffffffffffffffffffff168473ffffffffffffffffffffffffffffffffffffffff16148061166c575061166b8185611375565b5b806116aa57508373ffffffffffffffffffffffffffffffffffffffff16611692846106f6565b73ffffffffffffffffffffffffffffffffffffffff16145b91505092915050565b8273ffffffffffffffffffffffffffffffffffffffff166116d382610e66565b73ffffffffffffffffffffffffffffffffffffffff1614611729576040517f08c379a000000000000000000000000000000000000000000000000000000000815260040161172090613598565b60405180910390fd5b600073ffffffffffffffffffffffffffffffffffffffff168273ffffffffffffffffffffffffffffffffffffffff1603611798576040517f08c379a000000000000000000000000000000000000000000000000000000000815260040161178f9061362a565b60405180910390fd5b6117a5838383600161201a565b8273ffffffffffffffffffffffffffffffffffffffff166117c582610e66565b73ffffffffffffffffffffffffffffffffffffffff161461181b576040517f08c379a000000000000000000000000000000000000000000000000000000000815260040161181290613598565b60405180910390fd5b6004600082815260200190815260200160002060006101000a81549073ffffffffffffffffffffffffffffffffffffffff02191690556001600360008573ffffffffffffffffffffffffffffffffffffffff1673ffffffffffffffffffffffffffffffffffffffff168152602001908152602001600020600082825403925050819055506001600360008473ffffffffffffffffffffffffffffffffffffffff1673ffffffffffffffffffffffffffffffffffffffff16815260200190815260200160002060008282540192505081905550816002600083815260200190815260200160002060006101000a81548173ffffffffffffffffffffffffffffffffffffffff021916908373ffffffffffffffffffffffffffffffffffffffff160217905550808273ffffffffffffffffffffffffffffffffffffffff168473ffffffffffffffffffffffffffffffffffffffff167fddf252ad1be2c89b69c2b068fc378daa952ba7f163c4a11628f55a4df523b3ef60405160405180910390a46119a78383836001612020565b505050565b6119b461155d565b73ffffffffffffffffffffffffffffffffffffffff166119d2610fb7565b73ffffffffffffffffffffffffffffffffffffffff1614611a28576040517f08c379a0000000000000000000000000000000000000000000000000000000008152600401611a1f90613696565b60405180910390fd5b565b60006002600083815260200190815260200160002060009054906101000a900473ffffffffffffffffffffffffffffffffffffffff169050919050565b6000600660009054906101000a900473ffffffffffffffffffffffffffffffffffffffff16905081600660006101000a81548173ffffffffffffffffffffffffffffffffffffffff021916908373ffffffffffffffffffffffffffffffffffffffff1602179055508173ffffffffffffffffffffffffffffffffffffffff168173ffffffffffffffffffffffffffffffffffffffff167f8be0079c531659141344cd1fd0a4f28419497f9722a3daafe3b4186f6b6457e060405160405180910390a35050565b8173ffffffffffffffffffffffffffffffffffffffff168373ffffffffffffffffffffffffffffffffffffffff1603611b9b576040517f08c379a0000000000000000000000000000000000000000000000000000000008152600401611b9290613702565b60405180910390fd5b80600560008573ffffffffffffffffffffffffffffffffffffffff1673ffffffffffffffffffffffffffffffffffffffff16815260200190815260200160002060008473ffffffffffffffffffffffffffffffffffffffff1673ffffffffffffffffffffffffffffffffffffffff16815260200190815260200160002060006101000a81548160ff0219169083151502179055508173ffffffffffffffffffffffffffffffffffffffff168373ffffffffffffffffffffffffffffffffffffffff167f17307eab39ab6107e8899845ad3d59bd9653f200f220920489ca2b5937696c3183604051611c8c91906126f5565b60405180910390a3505050565b611ca48484846116b3565b611cb084848484612026565b611cef576040517f08c379a0000000000000000000000000000000000000000000000000000000008152600401611ce690613794565b60405180910390fd5b50505050565b60606040518060400160405280601a81526020017f697066733a2f2f68617070794d6f6e6b6579426173655552492f000000000000815250905090565b606060006001611d41846121ad565b01905060008167ffffffffffffffff811115611d6057611d5f612a0d565b5b6040519080825280601f01601f191660200182016040528015611d925781602001600182028036833780820191505090505b509050600082602001820190505b600115611df5578080600190039150507f3031323334353637383961626364656600000000000000000000000000000000600a86061a8153600a8581611de957611de86137b4565b5b04945060008503611da0575b819350505050919050565b611e086119ac565b6000611e14600d612300565b9050611e20600d61230e565b611e2a8682612324565b85600a600083815260200190815260200160002060006101000a81548173ffffffffffffffffffffffffffffffffffffffff021916908373ffffffffffffffffffffffffffffffffffffffff1602179055506040518060c0016040528086815260200183151581526020018773ffffffffffffffffffffffffffffffffffffffff1681526020018773ffffffffffffffffffffffffffffffffffffffff16815260200184815260200185815250600b60008381526020019081526020016000206000820151816000019081611eff9190613264565b5060208201518160010160006101000a81548160ff02191690831515021790555060408201518160010160016101000a81548173ffffffffffffffffffffffffffffffffffffffff021916908373ffffffffffffffffffffffffffffffffffffffff16021790555060608201518160020160006101000a81548173ffffffffffffffffffffffffffffffffffffffff021916908373ffffffffffffffffffffffffffffffffffffffff1602179055506080820151816003015560a0820151816004019081611fcd9190613264565b50905050505050505050565b60008073ffffffffffffffffffffffffffffffffffffffff16611ffb83611a2a565b73ffffffffffffffffffffffffffffffffffffffff1614159050919050565b50505050565b50505050565b60006120478473ffffffffffffffffffffffffffffffffffffffff16612342565b156121a0578373ffffffffffffffffffffffffffffffffffffffff1663150b7a0261207061155d565b8786866040518563ffffffff1660e01b81526004016120929493929190613838565b6020604051808303816000875af19250505080156120ce57506040513d601f19601f820116820180604052508101906120cb9190613899565b60015b612150573d80600081146120fe576040519150601f19603f3d011682016040523d82523d6000602084013e612103565b606091505b506000815103612148576040517f08c379a000000000000000000000000000000000000000000000000000000000815260040161213f90613794565b60405180910390fd5b805181602001fd5b63150b7a0260e01b7bffffffffffffffffffffffffffffffffffffffffffffffffffffffff1916817bffffffffffffffffffffffffffffffffffffffffffffffffffffffff1916149150506121a5565b600190505b949350505050565b600080600090507a184f03e93ff9f4daa797ed6e38ed64bf6a1f010000000000000000831061220b577a184f03e93ff9f4daa797ed6e38ed64bf6a1f0100000000000000008381612201576122006137b4565b5b0492506040810190505b6d04ee2d6d415b85acef81000000008310612248576d04ee2d6d415b85acef8100000000838161223e5761223d6137b4565b5b0492506020810190505b662386f26fc10000831061227757662386f26fc10000838161226d5761226c6137b4565b5b0492506010810190505b6305f5e10083106122a0576305f5e1008381612296576122956137b4565b5b0492506008810190505b61271083106122c55761271083816122bb576122ba6137b4565b5b0492506004810190505b606483106122e857606483816122de576122dd6137b4565b5b0492506002810190505b600a83106122f7576001810190505b80915050919050565b600081600001549050919050565b6001816000016000828254019250508190555050565b61233e828260405180602001604052806000815250612365565b5050565b6000808273ffffffffffffffffffffffffffffffffffffffff163b119050919050565b61236f83836123c0565b61237c6000848484612026565b6123bb576040517f08c379a00000000000000000000000000000000000000000000000000000000081526004016123b290613794565b60405180910390fd5b505050565b600073ffffffffffffffffffffffffffffffffffffffff168273ffffffffffffffffffffffffffffffffffffffff160361242f576040517f08c379a000000000000000000000000000000000000000000000000000000000815260040161242690613912565b60405180910390fd5b61243881611fd9565b15612478576040517f08c379a000000000000000000000000000000000000000000000000000000000815260040161246f9061397e565b60405180910390fd5b61248660008383600161201a565b61248f81611fd9565b156124cf576040517f08c379a00000000000000000000000000000000000000000000000000000000081526004016124c69061397e565b60405180910390fd5b6001600360008473ffffffffffffffffffffffffffffffffffffffff1673ffffffffffffffffffffffffffffffffffffffff16815260200190815260200160002060008282540192505081905550816002600083815260200190815260200160002060006101000a81548173ffffffffffffffffffffffffffffffffffffffff021916908373ffffffffffffffffffffffffffffffffffffffff160217905550808273ffffffffffffffffffffffffffffffffffffffff16600073ffffffffffffffffffffffffffffffffffffffff167fddf252ad1be2c89b69c2b068fc378daa952ba7f163c4a11628f55a4df523b3ef60405160405180910390a46125d9600083836001612020565b5050565b6040518060c0016040528060608152602001600015158152602001600073ffffffffffffffffffffffffffffffffffffffff168152602001600073ffffffffffffffffffffffffffffffffffffffff16815260200160008152602001606081525090565b6000604051905090565b600080fd5b600080fd5b60007fffffffff0000000000000000000000000000000000000000000000000000000082169050919050565b61268a81612655565b811461269557600080fd5b50565b6000813590506126a781612681565b92915050565b6000602082840312156126c3576126c261264b565b5b60006126d184828501612698565b91505092915050565b60008115159050919050565b6126ef816126da565b82525050565b600060208201905061270a60008301846126e6565b92915050565b600081519050919050565b600082825260208201905092915050565b60005b8381101561274a57808201518184015260208101905061272f565b60008484015250505050565b6000601f19601f8301169050919050565b600061277282612710565b61277c818561271b565b935061278c81856020860161272c565b61279581612756565b840191505092915050565b600060208201905081810360008301526127ba8184612767565b905092915050565b6000819050919050565b6127d5816127c2565b81146127e057600080fd5b50565b6000813590506127f2816127cc565b92915050565b60006020828403121561280e5761280d61264b565b5b600061281c848285016127e3565b91505092915050565b600073ffffffffffffffffffffffffffffffffffffffff82169050919050565b600061285082612825565b9050919050565b61286081612845565b82525050565b600060208201905061287b6000830184612857565b92915050565b61288a81612845565b811461289557600080fd5b50565b6000813590506128a781612881565b92915050565b600080604083850312156128c4576128c361264b565b5b60006128d285828601612898565b92505060206128e3858286016127e3565b9150509250929050565b6000806000606084860312156129065761290561264b565b5b600061291486828701612898565b935050602061292586828701612898565b9250506040612936868287016127e3565b9150509250925092565b612949816127c2565b82525050565b60006020820190506129646000830184612940565b92915050565b6000602082840312156129805761297f61264b565b5b600061298e84828501612898565b91505092915050565b6129a0816126da565b81146129ab57600080fd5b50565b6000813590506129bd81612997565b92915050565b600080604083850312156129da576129d961264b565b5b60006129e885828601612898565b92505060206129f9858286016129ae565b9150509250929050565b600080fd5b600080fd5b7f4e487b7100000000000000000000000000000000000000000000000000000000600052604160045260246000fd5b612a4582612756565b810181811067ffffffffffffffff82111715612a6457612a63612a0d565b5b80604052505050565b6000612a77612641565b9050612a838282612a3c565b919050565b600067ffffffffffffffff821115612aa357612aa2612a0d565b5b612aac82612756565b9050602081019050919050565b82818337600083830152505050565b6000612adb612ad684612a88565b612a6d565b905082815260208101848484011115612af757612af6612a08565b5b612b02848285612ab9565b509392505050565b600082601f830112612b1f57612b1e612a03565b5b8135612b2f848260208601612ac8565b91505092915050565b60008060008060808587031215612b5257612b5161264b565b5b6000612b6087828801612898565b9450506020612b7187828801612898565b9350506040612b82878288016127e3565b925050606085013567ffffffffffffffff811115612ba357612ba2612650565b5b612baf87828801612b0a565b91505092959194509250565b600082825260208201905092915050565b6000612bd782612710565b612be18185612bbb565b9350612bf181856020860161272c565b612bfa81612756565b840191505092915050565b612c0e816126da565b82525050565b6000612c1f82612825565b9050919050565b612c2f81612c14565b82525050565b612c3e816127c2565b82525050565b600060c0830160008301518482036000860152612c618282612bcc565b9150506020830151612c766020860182612c05565b506040830151612c896040860182612c26565b506060830151612c9c6060860182612c26565b506080830151612caf6080860182612c35565b5060a083015184820360a0860152612cc78282612bcc565b9150508091505092915050565b60006020820190508181036000830152612cee8184612c44565b905092915050565b60008060408385031215612d0d57612d0c61264b565b5b6000612d1b85828601612898565b9250506020612d2c85828601612898565b9150509250929050565b612d3f81612c14565b8114612d4a57600080fd5b50565b600081359050612d5c81612d36565b92915050565b600067ffffffffffffffff821115612d7d57612d7c612a0d565b5b612d8682612756565b9050602081019050919050565b6000612da6612da184612d62565b612a6d565b905082815260208101848484011115612dc257612dc1612a08565b5b612dcd848285612ab9565b509392505050565b600082601f830112612dea57612de9612a03565b5b8135612dfa848260208601612d93565b91505092915050565b60008060008060808587031215612e1d57612e1c61264b565b5b6000612e2b87828801612d4d565b945050602085013567ffffffffffffffff811115612e4c57612e4b612650565b5b612e5887828801612dd5565b935050604085013567ffffffffffffffff811115612e7957612e78612650565b5b612e8587828801612dd5565b9250506060612e96878288016127e3565b91505092959194509250565b7f4e487b7100000000000000000000000000000000000000000000000000000000600052602260045260246000fd5b60006002820490506001821680612ee957607f821691505b602082108103612efc57612efb612ea2565b5b50919050565b7f4552433732313a20617070726f76616c20746f2063757272656e74206f776e6560008201527f7200000000000000000000000000000000000000000000000000000000000000602082015250565b6000612f5e60218361271b565b9150612f6982612f02565b604082019050919050565b60006020820190508181036000830152612f8d81612f51565b9050919050565b7f4552433732313a20617070726f76652063616c6c6572206973206e6f7420746f60008201527f6b656e206f776e6572206f7220617070726f76656420666f7220616c6c000000602082015250565b6000612ff0603d8361271b565b9150612ffb82612f94565b604082019050919050565b6000602082019050818103600083015261301f81612fe3565b9050919050565b7f4552433732313a2063616c6c6572206973206e6f7420746f6b656e206f776e6560008201527f72206f7220617070726f76656400000000000000000000000000000000000000602082015250565b6000613082602d8361271b565b915061308d82613026565b604082019050919050565b600060208201905081810360008301526130b181613075565b9050919050565b60008190508160005260206000209050919050565b60006020601f8301049050919050565b600082821b905092915050565b60006008830261311a7fffffffffffffffffffffffffffffffffffffffffffffffffffffffffffffffff826130dd565b61312486836130dd565b95508019841693508086168417925050509392505050565b6000819050919050565b600061316161315c613157846127c2565b61313c565b6127c2565b9050919050565b6000819050919050565b61317b83613146565b61318f61318782613168565b8484546130ea565b825550505050565b600090565b6131a4613197565b6131af818484613172565b505050565b5b818110156131d3576131c860008261319c565b6001810190506131b5565b5050565b601f821115613218576131e9816130b8565b6131f2846130cd565b81016020851015613201578190505b61321561320d856130cd565b8301826131b4565b50505b505050565b600082821c905092915050565b600061323b6000198460080261321d565b1980831691505092915050565b6000613254838361322a565b9150826002028217905092915050565b61326d82612710565b67ffffffffffffffff81111561328657613285612a0d565b5b6132908254612ed1565b61329b8282856131d7565b600060209050601f8311600181146132ce57600084156132bc578287015190505b6132c68582613248565b86555061332e565b601f1984166132dc866130b8565b60005b82811015613304578489015182556001820191506020850194506020810190506132df565b86831015613321578489015161331d601f89168261322a565b8355505b6001600288020188555050505b505050505050565b7f4552433732313a20696e76616c696420746f6b656e2049440000000000000000600082015250565b600061336c60188361271b565b915061337782613336565b602082019050919050565b6000602082019050818103600083015261339b8161335f565b9050919050565b7f4552433732313a2061646472657373207a65726f206973206e6f74206120766160008201527f6c6964206f776e65720000000000000000000000000000000000000000000000602082015250565b60006133fe60298361271b565b9150613409826133a2565b604082019050919050565b6000602082019050818103600083015261342d816133f1565b9050919050565b600081905092915050565b600061344a82612710565b6134548185613434565b935061346481856020860161272c565b80840191505092915050565b600061347c828561343f565b9150613488828461343f565b91508190509392505050565b7f4f776e61626c653a206e6577206f776e657220697320746865207a65726f206160008201527f6464726573730000000000000000000000000000000000000000000000000000602082015250565b60006134f060268361271b565b91506134fb82613494565b604082019050919050565b6000602082019050818103600083015261351f816134e3565b9050919050565b7f4552433732313a207472616e736665722066726f6d20696e636f72726563742060008201527f6f776e6572000000000000000000000000000000000000000000000000000000602082015250565b600061358260258361271b565b915061358d82613526565b604082019050919050565b600060208201905081810360008301526135b181613575565b9050919050565b7f4552433732313a207472616e7366657220746f20746865207a65726f2061646460008201527f7265737300000000000000000000000000000000000000000000000000000000602082015250565b600061361460248361271b565b915061361f826135b8565b604082019050919050565b6000602082019050818103600083015261364381613607565b9050919050565b7f4f776e61626c653a2063616c6c6572206973206e6f7420746865206f776e6572600082015250565b600061368060208361271b565b915061368b8261364a565b602082019050919050565b600060208201905081810360008301526136af81613673565b9050919050565b7f4552433732313a20617070726f766520746f2063616c6c657200000000000000600082015250565b60006136ec60198361271b565b91506136f7826136b6565b602082019050919050565b6000602082019050818103600083015261371b816136df565b9050919050565b7f4552433732313a207472616e7366657220746f206e6f6e20455243373231526560008201527f63656976657220696d706c656d656e7465720000000000000000000000000000602082015250565b600061377e60328361271b565b915061378982613722565b604082019050919050565b600060208201905081810360008301526137ad81613771565b9050919050565b7f4e487b7100000000000000000000000000000000000000000000000000000000600052601260045260246000fd5b600081519050919050565b600082825260208201905092915050565b600061380a826137e3565b61381481856137ee565b935061382481856020860161272c565b61382d81612756565b840191505092915050565b600060808201905061384d6000830187612857565b61385a6020830186612857565b6138676040830185612940565b818103606083015261387981846137ff565b905095945050505050565b60008151905061389381612681565b92915050565b6000602082840312156138af576138ae61264b565b5b60006138bd84828501613884565b91505092915050565b7f4552433732313a206d696e7420746f20746865207a65726f2061646472657373600082015250565b60006138fc60208361271b565b9150613907826138c6565b602082019050919050565b6000602082019050818103600083015261392b816138ef565b9050919050565b7f4552433732313a20746f6b656e20616c7265616479206d696e74656400000000600082015250565b6000613968601c8361271b565b915061397382613932565b602082019050919050565b600060208201905081810360008301526139978161395b565b905091905056fea2646970667358221220306027ac779a86f9a2b86785f543d6fd3a1c17008e5d8301052bcd669791c67d64736f6c63430008130033",
  "immutableReferences": {},
  "source": "// SPDX-License-Identifier: MIT\r\n//pragma solidity ^0.8.9;\r\npragma solidity >=0.5.0 <0.9.0;\r\n\r\nimport \"@openzeppelin/contracts/token/ERC721/ERC721.sol\";\r\nimport \"@openzeppelin/contracts/access/Ownable.sol\";\r\nimport \"@openzeppelin/contracts/utils/Counters.sol\";\r\n\r\ncontract ResearchPapers is ERC721, Ownable {\r\n    using Counters for Counters.Counter;\r\n\r\n    //////////data structures INTIALIZATIONS/DECLARATIONS///////////////////\r\n    struct PaperDetails{\r\n        string name;\r\n        bool verified;\r\n        address payable previous_owner;\r\n        address payable present_owner;\r\n        uint id;\r\n        string paper_url;\r\n    }\r\n    PaperDetails[] paperDetails;\r\n    struct PersonalDetails {\r\n        string name;\r\n        //designation can be Author, Owner, Auctioneer, Bidder or Reviewer\r\n        string designation;\r\n    }\r\n    mapping (address => PersonalDetails) add_to_per;\r\n    address ownerAddress;\r\n    //mapping between token ID and owner of RP address\r\n    mapping (uint256 => address) nft_to_personlink;\r\n    mapping (uint256 => PaperDetails) nft_to_paperlink;\r\n    bool start = false;\r\n    Counters.Counter private _tokenIdCounter;\r\n\r\n    constructor() ERC721(\"ResearchPaperBidding\", \"RPB\") {\r\n        ownerAddress = msg.sender;\r\n    }\r\n\r\n    \r\n    //////////////Modifiers/////////////////\r\n    modifier onlyBidOpen(){\r\n        require(start);\r\n        _;\r\n    }\r\n\r\n    modifier notOwner(){\r\n        require(msg.sender != nft_to_paperlink[present_token_id].present_owner);\r\n        _;\r\n    }\r\n\r\n    ///////////////////OPERATIONS///////////////////////////////////////////\r\n\r\n    function _baseURI() internal pure override returns (string memory) {\r\n        return \"ipfs://happyMonkeyBaseURI/\";\r\n    }\r\n\r\n    function safeMint(address payable to, string memory name, string memory paper_url, uint id, bool verified) private onlyOwner{\r\n        uint256 tokenId = _tokenIdCounter.current();\r\n        _tokenIdCounter.increment();\r\n        _safeMint(to, tokenId);\r\n        //link NFT token to owner and NFT token to paper\r\n        nft_to_personlink[tokenId] = to;\r\n        nft_to_paperlink[tokenId] = PaperDetails(name, verified, to, to, id, paper_url);\r\n    }\r\n\r\n    //upload and review the research paper\r\n    // function uploadPaperAndValidate(address payable author, string memory paper_name) public onlyOwner{\r\n    //     //assuming the validation is done correctly, updating the verified parmeter of PaperDetails to true\r\n    //     safeMint(author, paper_name, true);\r\n    // }\r\n\r\n    //approve and create NFT token for the research paper\r\n    function approveAndcreateNFT(address payable author, string memory paper_name, string memory paper_url, uint id) public onlyOwner{\r\n        //assuming the validation is done correctly, updating the verified parmeter of PaperDetails to true\r\n        safeMint(author, paper_name, paper_url, id, true);\r\n    }\r\n\r\n\r\n\r\n    ///////////////////////////////////Bidding////////////////////////////////////////////////////\r\n\r\n    //start bidding by owner/auctioneer\r\n    uint present_token_id;\r\n    function start_bidding(uint id) public onlyOwner{\r\n         max_price = 0;\r\n        start = true;\r\n        present_token_id = id;\r\n    }\r\n\r\n    //assumption only one item can be bidded at a time\r\n    uint public max_price = 0;\r\n    address payable temp;\r\n    function bid() public onlyBidOpen notOwner payable{\r\n        if(msg.value > max_price){\r\n            max_price = msg.value;\r\n            temp = payable(msg.sender);\r\n        }\r\n    }\r\n\r\n    //close bidding\r\n    function close_bidding() public payable onlyOwner{\r\n        start = false;\r\n        address payable previous_own = nft_to_paperlink[present_token_id].present_owner;\r\n\r\n        uint id = nft_to_paperlink[present_token_id].id;\r\n\r\n        nft_to_personlink[present_token_id] = temp;\r\n        nft_to_paperlink[present_token_id] = PaperDetails(nft_to_paperlink[present_token_id].name, true, previous_own, temp, id, nft_to_paperlink[present_token_id].paper_url);\r\n        previous_own.transfer(max_price);\r\n        _transfer(ownerOf(present_token_id), temp, present_token_id);\r\n    }\r\n\r\n\r\n    //these methods are only meant for testing purpose\r\n\r\n     //debug nft_to_paperlink\r\n     function display_PaperDetails(uint256 id) public view returns (PaperDetails memory){\r\n        return nft_to_paperlink[id];\r\n    }\r\n\r\n    //debug max bid price so far\r\n     function display_maxBidPrice() public view returns (uint){\r\n        return max_price;\r\n    }\r\n\r\n    //display nft_to_personlink\r\n    function display_PersonDetails(uint id) public view returns (address){\r\n        return nft_to_personlink[id];\r\n    }\r\n\r\n}",
  "sourcePath": "E:\\Career\\University at Buffalo\\Semester 2\\CSE_Blockchain\\Project\\playground\\research-papers-bid\\contracts\\ResearchPapers.sol",
  "compiler": {
    "name": "solc",
    "version": "0.8.19+commit.7dd6d404.Emscripten.clang"
  },
  "schemaVersion": "3.4.13",
  "updatedAt": "2023-04-30T04:09:40.389Z",
  "networkType": "ethereum",
  "devdoc": {
    "events": {
      "Approval(address,address,uint256)": {
        "details": "Emitted when `owner` enables `approved` to manage the `tokenId` token."
      },
      "ApprovalForAll(address,address,bool)": {
        "details": "Emitted when `owner` enables or disables (`approved`) `operator` to manage all of its assets."
      },
      "Transfer(address,address,uint256)": {
        "details": "Emitted when `tokenId` token is transferred from `from` to `to`."
      }
    },
    "kind": "dev",
    "methods": {
      "approve(address,uint256)": {
        "details": "See {IERC721-approve}."
      },
      "balanceOf(address)": {
        "details": "See {IERC721-balanceOf}."
      },
      "getApproved(uint256)": {
        "details": "See {IERC721-getApproved}."
      },
      "isApprovedForAll(address,address)": {
        "details": "See {IERC721-isApprovedForAll}."
      },
      "name()": {
        "details": "See {IERC721Metadata-name}."
      },
      "owner()": {
        "details": "Returns the address of the current owner."
      },
      "ownerOf(uint256)": {
        "details": "See {IERC721-ownerOf}."
      },
      "renounceOwnership()": {
        "details": "Leaves the contract without owner. It will not be possible to call `onlyOwner` functions anymore. Can only be called by the current owner. NOTE: Renouncing ownership will leave the contract without an owner, thereby removing any functionality that is only available to the owner."
      },
      "safeTransferFrom(address,address,uint256)": {
        "details": "See {IERC721-safeTransferFrom}."
      },
      "safeTransferFrom(address,address,uint256,bytes)": {
        "details": "See {IERC721-safeTransferFrom}."
      },
      "setApprovalForAll(address,bool)": {
        "details": "See {IERC721-setApprovalForAll}."
      },
      "supportsInterface(bytes4)": {
        "details": "See {IERC165-supportsInterface}."
      },
      "symbol()": {
        "details": "See {IERC721Metadata-symbol}."
      },
      "tokenURI(uint256)": {
        "details": "See {IERC721Metadata-tokenURI}."
      },
      "transferFrom(address,address,uint256)": {
        "details": "See {IERC721-transferFrom}."
      },
      "transferOwnership(address)": {
        "details": "Transfers ownership of the contract to a new account (`newOwner`). Can only be called by the current owner."
      }
    },
    "version": 1
  },
  "userdoc": {
    "kind": "user",
    "methods": {},
    "version": 1
  }
}